S017000031303070657263656E744A657375732E7372656381
S11300000C9434000C9451000C9451000C94810015
S11300100C9451000C9451000C9451000C94510018
S11300200C9451000C9451000C9451000C94510008
S11300300C9451000C9451000C9451000C945100F8
S11300400C9451000C9451000C9451000C945100E8
S11300500C9451000C9451000C9451000C945100D8
S11300600C9451000C94510011241FBECFEFD8E022
S1130070DEBFCDBF11E0A0E0B1E0ECE1F2E002C0F0
S113008005900D92A230B107D9F721E0A2E0B1E0CA
S113009001C01D92A330B207E1F70E94FA000C944C
S11300A00C010C9400008EEF8AB91BB814B883E3DA
S11300B085B991E09093680010926D0010926C00E5
S11300C080936B0008959093C5008093C40088E1E9
S11300D08093C1008EE08093C200089583EF84BDB5
S11300E084E085BD10926E008FEF87BD88BD16BC7D
S11300F00895E0ECF0E080818823ECF78091C6005D
S113010008951F920F920FB60F9211248F9318998E
S113011004C081E08093000109C0199904C081E002
S11301208093000103C082E0809300011C9906C003
S11301301D9904C083E0809300010EC01C9904C083
S113014082E08093020108C01D9904C081E080937D
S1130150020102C0109202018F910F900FBE0F9006
S11301601F9018955A985B988AE787BD88BD0895B3
S1130170809100018230B1F480910201813041F01C
S113018018F0823051F008958AE787BD88BD08953C
S11301908FEF87BD8AE788BD08958AE787BD8FEF13
S11301A088BD08958330F1F480910201813019F003
S11301B0823041F00DC05A9A5B988FEF87BD8AE771
S11301C088BD06C05A985B9A8AE787BD8FEF88BDC1
S11301D01C9902C01D9BFCCF82E0809300015A98B9
S11301E05B98089517BC18BC189BFECF82E08093DF
S11301F0000108950E94530087E690E00E94630086
S11302000E9479008133E1F70E946E000E94B200DF
S10F021078940E94B800FDCFF894FFCF52
S105021C0200DA
S9030000FC
